{
  "transactions": [
    {
      "hash": "0x3f6d613fa790efab418005cfcf6a70939fb404c0a4a931402f3420033acefe35",
      "transactionType": "CALL",
      "contractName": null,
      "contractAddress": "0x8547ac5a696beb301d5239cde9f3894b106476c9",
      "function": "forceUpdateLvReserve(bytes32,uint256,uint256)",
      "arguments": [
        "0xecda300f810f7d7258281a46af999785dafd05df16dde7e49fe354fbb818d1e4",
        "2",
        "624099186889172961008"
      ],
      "transaction": {
        "from": "0x036febb27d1da9bff69600de3c9e5b6cd6a7d275",
        "to": "0x8547ac5a696beb301d5239cde9f3894b106476c9",
        "gas": "0xc569",
        "value": "0x0",
        "input": "0x77b65a49ecda300f810f7d7258281a46af999785dafd05df16dde7e49fe354fbb818d1e40000000000000000000000000000000000000000000000000000000000000002000000000000000000000000000000000000000000000021d51db7db4347c6f0",
        "nonce": "0xdd",
        "chainId": "0xaa36a7"
      },
      "additionalContracts": [],
      "isFixedGasLimit": false
    }
  ],
  "receipts": [
    {
      "status": "0x1",
      "cumulativeGasUsed": "0x59f909",
      "logs": [
        {
          "address": "0x8547ac5a696beb301d5239cde9f3894b106476c9",
          "topics": [
            "0x4780de533a3d9e726e6412c4d502e27d45251e919629cdde424be0ac1264ceca"
          ],
          "data": "0xecda300f810f7d7258281a46af999785dafd05df16dde7e49fe354fbb818d1e40000000000000000000000000000000000000000000000000000000000000002000000000000000000000000000000000000000000000021d51db7db4347c6f0000000000000000000000000000000000000000000000021d51db7db4347c6fc",
          "blockHash": "0x918d9cfffc7eccff26ab4fe18720489b7d822a98da6d463c308f221ec6a953e9",
          "blockNumber": "0x6e7cd3",
          "transactionHash": "0x3f6d613fa790efab418005cfcf6a70939fb404c0a4a931402f3420033acefe35",
          "transactionIndex": "0x33",
          "logIndex": "0x3b",
          "removed": false
        }
      ],
      "logsBloom": "0x00000000000000000000000000000000000000080000000000000000000000000000000000000000000000000000000000000000000000000000000000000000000000000000000000000000000000000000000000000000000108000000000000000000000000000000000000000000000000000000000000000000000000000000000000000000000000000000000000200000000000000000000000000000000000000000000000000000000100000000000000000000000000000000000000000000000000000000000000000000000000000000000000000000000000000000000000000000000000000010000000000000000000000000000000000000",
      "type": "0x2",
      "transactionHash": "0x3f6d613fa790efab418005cfcf6a70939fb404c0a4a931402f3420033acefe35",
      "transactionIndex": "0x33",
      "blockHash": "0x918d9cfffc7eccff26ab4fe18720489b7d822a98da6d463c308f221ec6a953e9",
      "blockNumber": "0x6e7cd3",
      "gasUsed": "0x8eed",
      "effectiveGasPrice": "0x199465cf",
      "from": "0x036febb27d1da9bff69600de3c9e5b6cd6a7d275",
      "to": "0x8547ac5a696beb301d5239cde9f3894b106476c9",
      "contractAddress": null
    }
  ],
  "libraries": [],
  "pending": [],
  "returns": {},
  "timestamp": 1733714333,
  "chain": 11155111,
  "commit": "e6df470"
}